:1000000045C0000058C0000056C0000054C00000A9
:1000100052C0000050C000004EC000004CC00000A4
:100020004AC0000048C0000046C0000044C00000B4
:1000300042C0000040C000003EC000003CC00000C4
:100040003AC0000038C0000036C0000034C00000D4
:1000500032C0000030C000002EC000002CC00000E4
:100060002AC0000028C0000026C0000024C00000F4
:1000700022C0000020C000001EC000001CC0000004
:100080001AC0000018C0000016C0000011241FBED6
:10009000CFEFD0E1DEBFCDBF11E0A0E0B1E0E2E8FC
:1000A000F4E000E00BBF02C007900D92AE33B10741
:1000B000D9F74CD1E4C1A4CFE4E6F0E080818760B9
:1000C0008083808188678083E5E6F0E08081887F97
:1000D00080838081877880830895E5E6F0E09081D1
:1000E0009778908380FF03C090819860908381FF10
:1000F00005C0E5E6F0E090819061908382FF05C045
:10010000E5E6F0E090819062908383FF05C0E5E62C
:10011000F0E08081806480830895E5E6F0E08081EE
:100120008460808385E08A95F1F780818B7F80836E
:1001300086EF8A95F1F70895CF93C82FE5E6F0E0B2
:1001400080818E7F808380818D7F80838C2F8295BC
:100150008F70C3DFE2DF8C2F8F70BFDFDEDF8CECB0
:100160009CE10197F1F700C00000CF910895CF9373
:10017000C82FE5E6F0E080818160808380818D7FFB
:1001800080838C2F82958F70A8DFC7DF8C2F8F70B4
:10019000A4DFC3DF8CEC9CE10197F1F700C0000005
:1001A000CF910895E4DF86E69EE00197F1F7000025
:1001B0000895CF93DF93EC0102C02196F3DF88818D
:1001C0008111FBCFDF91CF9108956111805C806830
:1001D000B3CF089581E0B0DF8CEC9CE10197F1F79B
:1001E00000C00000089568DF26E686EE90E021500A
:1001F00080409040E1F783E070DF8FDF8FEF97E47E
:100200000197F1F700C0000088DF8FEF97E40197B6
:10021000F1F700C0000081DF8FEF97E40197F1F75D
:1002200000C0000082E059DF78DF8FEF97E401978C
:10023000F1F700C0000088E27FDF8CE07DDF86E020
:100240007BDFC8CF089581B38F7081BB82B3806F8D
:1002500082BB81B3876081BB82B3876082BB089514
:10026000CF93DF93CDB7DEB72C970FB6F894DEBFF0
:100270000FBECDBF8CE0E0E0F1E0DE011196019011
:100280000D928A95E1F730E054C082B3876082BB5B
:1002900022B3E32FF0E081E090E0032E02C0880F4C
:1002A000991F0A94E2F78095822382BB88E18A95A0
:1002B000F1F700C020E03AC080B3622F70E0AB01DC
:1002C0004C5F5F4F90E0042E02C0959587950A948D
:1002D000E2F780FD2AC096E6A6EE80E09150A040AD
:1002E0008040E1F780B390E0042E02C09595879599
:1002F0000A94E2F780FD19C080B390E0042E02C09A
:10030000959587950A94E2F780FFF6CFCB01880F89
:10031000991F680F791F81E090E08C0F9D1F680F77
:10032000791FE60FF71F808108C02F5F243020F26D
:100330003F5F333008F4A9CF80E02C960FB6F894D5
:10034000DEBF0FBECDBFDF91CF910895CF93DF9376
:10035000CDB7DEB760970FB6F894DEBF0FBECDBF46
:100360008FEF82B913B83FDF6EDF34DF60E080E0EB
:100370002CDF8CE091E01DDF88E0E6E3F1E0DE01B8
:10038000119601900D928A95E1F7FE01399688E069
:10039000DF011D928A95E9F710E062DF8823E9F317
:1003A000BFEF2FEF38E0B15020403040E1F700C000
:1003B0000000833291F0173080F701E0010FE9E08F
:1003C000F0E0EC0FFD1FE10FF11D808361E0812F54
:1003D000FCDE8AE2E7DE102FE0CFE9E0F0E0EC0F90
:1003E000FD1FE10FF11D108220E013C0822F90E06D
:1003F000E9E0F0E0EC0FFD1FE80FF91F3081E1E0CC
:10040000F0E0EC0FFD1FE80FF91F8081381305C0E5
:100410002F5F273058F311E001C010E0DBDE11231D
:1004200049F060E080E0D1DE8CE191E0C2DE8FEF48
:1004300083B907C060E080E0C8DE88E291E0B9DE01
:1004400013B88FEF9FEFA9E581509040A040E1F7EE
:1004500000C0000080E008C0E9E0F0E0EC0FFD1F04
:10046000E80FF11D10828F5F8830B0F3B3DE60E0DB
:1004700080E0ABDE8CE091E09CDE10E08ECFF89463
:02048000FFCFAC
:100482003132333435363738392A3023456E746584
:10049200722050617373776F72643A0050617373A4
:1004A200776F7264204F4B0050617373776F726481
:0E04B200204641494C00313233343536370094
:00000001FF
