:1000000045C0000060C000005EC000005CC0000091
:100010005AC0000058C0000056C0000054C0000084
:1000200052C0000050C000004EC000004CC0000094
:100030004AC0000048C0000046C0000044C00000A4
:1000400042C0000040C000003EC000003CC00000B4
:100050003AC0000038C0000036C0000034C00000C4
:1000600032C0000030C000002EC000002CC00000D4
:100070002AC0000028C0000026C0000024C00000E4
:1000800022C0000020C000001EC0000011241FBEBE
:10009000CFEFD0E1DEBFCDBF11E0A0E0B1E0ECEFEB
:1000A000F3E000E00BBF02C007900D92AE30B10745
:1000B000D9F721E0AEE0B1E001C01D92AF30B20748
:1000C000E1F7ABD099C19CCF8FEF84BB8FE08093D9
:1000D00064000895E5E6F0E090819160908390815E
:1000E0009D7F908390819460908396EF9A95F1F72D
:1000F00085BB86EF8A95F1F780818B7F8083089599
:10010000E5E6F0E090819E7F908390819D7F9083D3
:1001100090819460908396EF9A95F1F785BB86EF76
:100120008A95F1F780818B7F80830895D3DF86E6FF
:100130009EE00197F1F700000895CF93DF93EC0163
:1001400002C0F4DF219688818111FBCFDF91CF912E
:10015000089590E4899F600D1124862F8068D0CF88
:10016000089581E0CDDF8CEC9CE10197F1F700C0B0
:100170000000089588E3C4DF8CEC9CE10197F1F75F
:1001800000C0000088E3BCDF8CEC9CE10197F1F734
:1001900000C0000088E3B4DF8CEC9CE10197F1F72C
:1001A00000C000008EE0ACDF8CEC9CE10197F1F721
:1001B00000C0000086E0A4DF8CEC9CE10197F1F721
:1001C00000C00000CECF089580EF81BB8FE082BBDE
:1001D0000895CF93C82F60910E0180910001B9DF7F
:1001E0008C2FA4DF80910E018F5F80930E018031F0
:1001F00090F010920E018091000190E001968170C4
:100200009078992324F401978E6F9F6F01968093C5
:10021000000160E09EDFCF910895CF93DF93CDB7CB
:10022000DEB72C970FB6F894DEBF0FBECDBF8CE0C3
:10023000E1E0F1E0DE01119601900D928A95E1F77F
:1002400043DF98DFC1DF60E080E083DFCE0101960D
:1002500074DF60E081E07DDF80E182BB28E12A95E8
:10026000F1F700C0809B0EC081E3B3DF8099FECF21
:100270008FEF9FE724E0815090402040E1F700C0DD
:1002800000002FC0819B0EC084E3A3DF8199FECFC5
:100290008FEF9FE724E0815090402040E1F700C0BD
:1002A00000001FC0829B0EC087E393DF8299FECFC0
:1002B0008FEF9FE724E0815090402040E1F700C09D
:1002C00000000FC0839B0DC08AE283DF8399FECFBD
:1002D0008FEF9FE724E0815090402040E1F700C07D
:1002E000000080E282BB88E18A95F1F700C0809B24
:1002F0000EC082E36EDF8099FECF9FEF2FE784E090
:10030000915020408040E1F700C000002FC0819B49
:100310000EC085E35EDF8199FECF9FEF2FE784E07B
:10032000915020408040E1F700C000001FC0829B38
:100330000EC088E34EDF8299FECF9FEF2FE784E067
:10034000915020408040E1F700C000000FC0839B27
:100350000DC080E33EDF8399FECF9FEF2FE784E05F
:10036000915020408040E1F700C0000080E482BB53
:1003700098E19A95F1F700C0809B0EC083E329DFD6
:100380008099FECF2FEF8FE794E02150804090407E
:10039000E1F700C0000060CF819B0EC086E319DF4B
:1003A0008199FECF2FEF8FE794E02150804090405D
:1003B000E1F700C0000050CF829B0EC089E309DF47
:1003C0008299FECF2FEF8FE794E02150804090403C
:1003D000E1F700C0000040CF839B3ECF83E2F9DE0F
:1003E0008399FECF2FEF8FE794E02150804090401B
:0C03F000E1F700C0000030CFF894FFCF10
:0E03FC00014B657970616420546573740000D4
:00000001FF
