S00E00004B65797061642E73726563B8
S113000045C0000060C000005EC000005CC000008D
S11300105AC0000058C0000056C0000054C0000080
S113002052C0000050C000004EC000004CC0000090
S11300304AC0000048C0000046C0000044C00000A0
S113004042C0000040C000003EC000003CC00000B0
S11300503AC0000038C0000036C0000034C00000C0
S113006032C0000030C000002EC000002CC00000D0
S11300702AC0000028C0000026C0000024C00000E0
S113008022C0000020C000001EC0000011241FBEBA
S1130090CFEFD0E1DEBFCDBF11E0A0E0B1E0E8E8F2
S11300A0F3E000E00BBF02C007900D92AC32B10741
S11300B0D9F721E0ACE2B1E001C01D92AE33B20742
S11300C0E1F723D15FC19CCF8FE0809364008FEF71
S11300D087BB0895E5E6F0E090819160908390817C
S11300E09D7F908390819460908396EF9A95F1F729
S11300F088BB86EF8A95F1F780818B7F8083089592
S1130100E5E6F0E090819E7F908390819D7F9083CF
S113011090819460908396EF9A95F1F788BB86EF6F
S11301208A95F1F780818B7F80830895D3DF86E6FB
S11301309EE00197F1F700000895CF93DF93EC015F
S113014002C0F4DF219688818111FBCFDF91CF912A
S1130150089590E4899F600D1124862F8068D0CF84
S1130160089581E0CDDF8CEC9CE10197F1F700C0AC
S11301700000089588E3C4DF8CEC9CE10197F1F75B
S113018000C0000088E3BCDF8CEC9CE10197F1F730
S113019000C0000088E3B4DF8CEC9CE10197F1F728
S11301A000C000008EE0ACDF8CEC9CE10197F1F71D
S11301B000C0000086E0A4DF8CEC9CE10197F1F71D
S11301C000C00000CECF089580EF82B9089580E189
S11301D083B982E68A95F1F700000C9B02C080E0A7
S11301E001C081E30D9B82E30E9B83E390E293B90C
S11301F092E69A95F1F700000C9B84E30D9B85E34E
S11302000E9B86E390E493B992E69A95F1F7000089
S11302100C9B87E30D9B88E30E9B89E390E893B9DD
S113022092E69A95F1F700000C9B8AE20D9B80E31D
S11302300E9B83E2089520912C0130912D012F30E3
S1130240310564F4A9014F5F5F4F50932D01409332
S11302502C01F901E25DFE4F8083089582DF60E0A6
S113026080E077DF80E091E068DF2FEF8FEF9CE2A2
S1130270215080409040E1F700C0000072DF1092EE
S11302802D0110922C010895CF93DF9360E081E05B
S113029060DFC0E0D0E006C0FE01E25DFE4F808179
S11302A045DF219680912C0190912D01C817D90723
S11302B09CF3DF91CF91089590ED980F9A3038F028
S11302C08A3241F0833249F481E090E0089581E07C
S11302D090E0089581E090E0089580E090E0089532
S11302E0CF93C82F2FEF8FE392E0215080409040AE
S11302F0E1F700C000006BDF8C1303C081E090E0E5
S113030002C080E090E0CF910895CF93DF93CDB702
S1130310DEB72C970FB6F894DEBF0FBECDBF8CE0CE
S1130320EFE1F1E0DE01119601900D928A95E1F77B
S1130330CBDE20DF49DF60E080E00BDFCE010196F9
S1130340FCDE45DF182F8823E1F3CADF892BC9F3CC
S1130350812FB2DF892B19F0812F6DDF11C001DFEE
S113036060E080E0F6DE80E191E0E7DE2FEF8FEFE2
S11303709CE2215080409040E1F700C00000F1DE93
S10B038083DFDFCFF894FFCF07
S1130388496E70757420746F6F206C6F6E672100EE
S1130398496E76616C696420696E70757421004BCE
S10F03A865797061642054657374000072
S9030000FC
